{"abi":[{"type":"function","name":"balanceOf","inputs":[{"name":"","type":"address","internalType":"address"}],"outputs":[{"name":"","type":"uint256","internalType":"uint256"}],"stateMutability":"view"},{"type":"function","name":"deposit","inputs":[],"outputs":[],"stateMutability":"payable"},{"type":"function","name":"totalAssets","inputs":[],"outputs":[{"name":"","type":"uint256","internalType":"uint256"}],"stateMutability":"view"},{"type":"function","name":"withdraw","inputs":[{"name":"amount","type":"uint256","internalType":"uint256"}],"outputs":[],"stateMutability":"nonpayable"}],"bytecode":{"object":"0x6080604052348015600e575f80fd5b506107428061001c5f395ff3fe60806040526004361061003e575f3560e01c806301e1d114146100425780632e1a7d4d1461006c57806370a0823114610094578063d0e30db0146100d0575b5f80fd5b34801561004d575f80fd5b506100566100da565b6040516100639190610391565b60405180910390f35b348015610077575f80fd5b50610092600480360381019061008d91906103d8565b6100e0565b005b34801561009f575f80fd5b506100ba60048036038101906100b5919061045d565b6102b7565b6040516100c79190610391565b60405180910390f35b6100d86102cb565b005b60015481565b5f8111610122576040517f08c379a0000000000000000000000000000000000000000000000000000000008152600401610119906104e2565b60405180910390fd5b805f803373ffffffffffffffffffffffffffffffffffffffff1673ffffffffffffffffffffffffffffffffffffffff1681526020019081526020015f205410156101a1576040517f08c379a00000000000000000000000000000000000000000000000000000000081526004016101989061054a565b60405180910390fd5b805f803373ffffffffffffffffffffffffffffffffffffffff1673ffffffffffffffffffffffffffffffffffffffff1681526020019081526020015f205f8282546101ec9190610595565b925050819055508060015f8282546102049190610595565b925050819055505f3373ffffffffffffffffffffffffffffffffffffffff1682604051610230906105f5565b5f6040518083038185875af1925050503d805f811461026a576040519150601f19603f3d011682016040523d82523d5f602084013e61026f565b606091505b50509050806102b3576040517f08c379a00000000000000000000000000000000000000000000000000000000081526004016102aa90610653565b60405180910390fd5b5050565b5f602052805f5260405f205f915090505481565b5f341161030d576040517f08c379a0000000000000000000000000000000000000000000000000000000008152600401610304906106bb565b60405180910390fd5b345f803373ffffffffffffffffffffffffffffffffffffffff1673ffffffffffffffffffffffffffffffffffffffff1681526020019081526020015f205f82825461035891906106d9565b925050819055503460015f82825461037091906106d9565b92505081905550565b5f819050919050565b61038b81610379565b82525050565b5f6020820190506103a45f830184610382565b92915050565b5f80fd5b6103b781610379565b81146103c1575f80fd5b50565b5f813590506103d2816103ae565b92915050565b5f602082840312156103ed576103ec6103aa565b5b5f6103fa848285016103c4565b91505092915050565b5f73ffffffffffffffffffffffffffffffffffffffff82169050919050565b5f61042c82610403565b9050919050565b61043c81610422565b8114610446575f80fd5b50565b5f8135905061045781610433565b92915050565b5f60208284031215610472576104716103aa565b5b5f61047f84828501610449565b91505092915050565b5f82825260208201905092915050565b7f7a65726f207769746864726177000000000000000000000000000000000000005f82015250565b5f6104cc600d83610488565b91506104d782610498565b602082019050919050565b5f6020820190508181035f8301526104f9816104c0565b9050919050565b7f696e73756666696369656e742062616c616e63650000000000000000000000005f82015250565b5f610534601483610488565b915061053f82610500565b602082019050919050565b5f6020820190508181035f83015261056181610528565b9050919050565b7f4e487b71000000000000000000000000000000000000000000000000000000005f52601160045260245ffd5b5f61059f82610379565b91506105aa83610379565b92508282039050818111156105c2576105c1610568565b5b92915050565b5f81905092915050565b50565b5f6105e05f836105c8565b91506105eb826105d2565b5f82019050919050565b5f6105ff826105d5565b9150819050919050565b7f7472616e73666572206661696c656400000000000000000000000000000000005f82015250565b5f61063d600f83610488565b915061064882610609565b602082019050919050565b5f6020820190508181035f83015261066a81610631565b9050919050565b7f7a65726f206465706f73697400000000000000000000000000000000000000005f82015250565b5f6106a5600c83610488565b91506106b082610671565b602082019050919050565b5f6020820190508181035f8301526106d281610699565b9050919050565b5f6106e382610379565b91506106ee83610379565b925082820190508082111561070657610705610568565b5b9291505056fea2646970667358221220bf09d2694efb59bb2a7c2e02e33cf4e2472857fe043839d796ab68d2d65fa3eb64736f6c63430008190033","linkReferences":{}},"methodIdentifiers":{"balanceOf(address)":"70a08231","deposit()":"d0e30db0","totalAssets()":"01e1d114","withdraw(uint256)":"2e1a7d4d"},"id":19}